:07000000021E3A283029001E
:10000B00021F027D139000680BEA009000680BEA58
:10001B00309D30BD3140F422021DEE000000000087
:10002B00000000002F000000000700070000147FF5
:10003B00147F1400242A7F2A120062640813230001
:10004B00364955225000000503000000001C2241D8
:10005B0000000041221C000014083E081400080890
:10006B003E0808000000A06000000808080808000F
:10007B000060600000002010080402003E5149455A
:10008B003E0000427F400000426151494600214141
:10009B00454B31001814127F100027454545390098
:1000AB003C4A494930000171090503003649494969
:1000BB003600064949291E0000363600000000565E
:1000CB00360000000814224100001414141414000C
:1000DB00004122140800020151090600324959510E
:1000EB003E007C1211127C007F49494936003E418B
:1000FB00414122007F4141221C007F494949410077
:10010B007F09090901003E4149497A007F08080827
:10011B007F0000417F4100002040413F01007F08EC
:10012B00142241007F40404040007F020C027F00C0
:10013B007F0408107F003E4141413E007F090909C1
:10014B0006003E4151215E007F09192946004649B0
:10015B004949310001017F0101003F4040403F0010
:10016B001F2040201F003F4038403F0063140814FD
:10017B006300070870080700615149454300007F81
:10018B0041410000552A552A55000041417F00008E
:10019B000402010204004040404040000001020400
:1001AB0000002054545478007F48444438003844AD
:1001BB0044442000384444487F00385454541800B9
:1001CB00087E0901020018A4A4A47C007F08040483
:1001DB00780000447D4000004080847D00007F104B
:1001EB002844000000417F4000007C041804780084
:1001FB007C0804047800384444443800FC2424244C
:10020B00180018242418FC007C0804040800485427
:10021B0054542000043F444020003C4040207C00CC
:10022B001C2040201C003C4030403C00442810283F
:10023B0044001CA0A0A07C004464544C441414142F
:10024B0014141400040404FF5454545454FF0404B1
:10025B00040000000000000000000000000000008F
:10026B0000000011118985939191FD9191938589DE
:10027B001111000000000000000000000000000051
:10028B0000000040404242424242FE424242424251
:10029B0040400000000000000000000000000000D3
:1002AB00000000000000000040807F000000000004
:1002BB000000000000000000000000000000000033
:1002CB00000000100C04946C4445F644444C540458
:1002DB00140C0000000000000000000000000000F3
:1002EB00000000020202FA4A4A4A4B4A4A4AFA0200
:1002FB0002020000000000000000000000000000EF
:10030B0000000000106002CC8080FC4020FF100831
:10031B00F8000000000000000000000000000000DA
:10032B000000000004047E0100003F40404F4044A9
:10033B0047407800000000000000000000000000B3
:10034B00000000048484FC848400040484E41C8482
:10035B00040400000000000000000000000000008A
:10036B000000002060201F101004020100FF00009D
:10037B00010600000000000000000000000000006B
:10038B00000000001010FF101020A4ACB5A6B4ACF8
:10039B00A42020000000000000000000000000006E
:1003AB000000000010301F0888804F3A0A0A7A8A32
:1003BB008F80E00000000000000000000000000043
:1003CB0000000000007E0000FF0040300F041464AA
:1003DB00040000000000000000000000000000000E
:1003EB0000000040407E42427E4242427E42427EBC
:1003FB004040000000000000000000000000000072
:10040B00000000001060028C00FE02F202FE00F8F9
:10041B0000FF0000000000000000000000000000D2
:10042B000000000004047E018047300F10270047B6
:10043B00807F0000000000000000000000000000B2
:10044B0000000000000022322AA6A26221110981BD
:10045B000100000000000000000000000000000090
:10046B0000000000004222130B42827E02020A129D
:10047B002346000000000000000000000000000008
:10048B000000002030AC63300088C8A8998E88A883
:10049B00C888000000000000000000000000000001
:1004AB0000000022672212128040300F00003F40F4
:1004BB004071000000000000000000000000000080
:1004CB00000000001060028C0000FE92929292924B
:1004DB00FE00000000000000000000000000000013
:1004EB000000000004047E01407E42427E427E42B8
:1004FB00427E4000000000000000000000000000F1
:10050B00000000001060028C00FE92929292929278
:10051B00FE000000000000000000000000000000D2
:10052B000000000004047E014448507F40407F508F
:10053B0048444000000000000000000000000000E4
:10054B000000000000FC242424FC252624FC242489
:10055B002404000000000000000000000000000068
:10056B0000000040308F80844C55252525554C804C
:10057B008080000000000000000000000000000070
:10058B00000000001060028C201808C838CF080843
:10059B002898000000000000000000000000000090
:1005AB000000000004047E01040201FF4021060A42
:1005BB0011204000000000000000000000000000BF
:1005CB0000000000F80C0B0808F840308F080808F2
:1005DB00F800000000000000000000000000000018
:1005EB00000000007F212121217F0000004380407B
:1005FB003F000000000000000000000000000000B1
:10060B0000000000000000000000000000000000DF
:10061B00000000000000F800000000000000333074
:10062B0000000000100C06100C060000000000007B
:10063B0000000040C07840C0784000043F04043FF5
:10064B00040400007088FC08300000001820FF2113
:10065B001E0000F008F000E018000000211C031E33
:10066B00211E0000F00888700000001E21232419B1
:10067B0027211010160E00000000000000000000E3
:10068B00000000000000E018040200000000071842
:10069B0020400000020418E0000000004020180772
:1006AB00000000404080F0804040000202010F013A
:1006BB00020200000000F0000000000101011F0118
:1006CB00010100000000000000000080B07000007D
:1006DB00000000000000000000000000010101010B
:1006EB00010101000000000000000000303000009C
:1006FB000000000000000080601804006018060174
:10070B0000000000E010080810E000000F1020208F
:10071B00100F00001010F8000000000020203F20F8
:10072B002000000070080808887000003028242280
:10073B002130000030088888483000001820202025
:10074B00110E000000C02010F80000000704242444
:10075B003F240000F8088888080800001921202091
:10076B00110E0000E0108888180000000F112020E7
:10077B00110E0000380808C83808000000003F00C0
:10078B000000000070880808887000001C222121DE
:10079B00221C0000E010080810E0000000312222AB
:1007AB00110F00000000C0C000000000000030303E
:1007BB0000000000000080000000000000806000CE
:1007CB000000000000804020100800000102040817
:1007DB00102000404040404040400004040404040A
:1007EB0004040000081020408000000020100804C2
:1007FB00020100007048080808F0000000003036C5
:10080B00010000C030C828E810E000071827242397
:10081B00140B000000C038E0000000203C23020253
:10082B0027382008F8888888700000203F20202077
:10083B00110E00C0300808080838000718202020C7
:10084B0010080008F808080810E000203F202020BE
:10085B00100F0008F88888E8081000203F2020239C
:10086B0020180008F88888E8081000203F200003B3
:10087B00000000C0300808083800000718202022AC
:10088B001E020008F808000008F808203F210101AB
:10089B00213F20000808F8080800000020203F2016
:1008AB0020000000000808F8080800C08080807F46
:1008BB0000000008F888C028180800203F200126F7
:1008CB0038200008F8080000000000203F202020FE
:1008DB0020300008F8F800F8F80800203F003F002F
:1008EB003F200008F830C00008F808203F20000720
:1008FB00183F00E01008080810E0000F102020201F
:10090B00100F0008F808080808F000203F2101012B
:10091B00010000E01008080810E0000F182424382C
:10092B00504F0008F8888888887000203F2000030B
:10093B000C3020007088080808380000382021216E
:10094B00221C00180808F8080818000000203F2097
:10095B0000000008F808000008F808001F202020FD
:10096B00201F000878880000C83808000007380EE0
:10097B00010000F80800F80008F800033C07000726
:10098B003C0300081868808068180820302C03038B
:10099B002C30200838C800C83808000000203F2041
:1009AB0000000010080808C838080020382621204D
:1009BB00201800000000FE020202000000007F4031
:1009CB00404000000C30C000000000000000010699
:1009DB0038C00000020202FE000000004040407FD1
:1009EB0000000000000402020204000000000000EE
:1009FB00000000000000000000000080808080806C
:100A0B008080800002020400000000000000000053
:100A1B00000000000080808080000000192422224A
:100A2B00223F2008F8008080000000003F112020AA
:100A3B00110E000000008080800000000E112020AD
:100A4B00201100000000808088F800000E1120208B
:100A5B00103F200000808080800000001F22222297
:100A6B00221300008080F0888888180020203F2007
:100A7B002000000000808080808000006B949494A4
:100A8B0093600008F8008080800000203F21000068
:100A9B00203F2000809898000000000020203F207D
:100AAB00200000000000809898000000C08080802B
:100ABB007F000008F8000080808000203F24022D7A
:100ACB00302000000808F8000000000020203F2024
:100ADB002000008080808080808000203F20003FAD
:100AEB0020003F8080008080800000203F2100009C
:100AFB00203F200000808080800000001F202020ED
:100B0B00201F00808000808000000080FFA120203B
:100B1B00110E000000008080808000000E1120204C
:100B2B00A0FF80808080008080800020203F2120DB
:100B3B00000100000080808080800000332424248A
:100B4B00241900008080E0808000000000001F203E
:100B5B002000008080000000808000001F202020EB
:100B6B00103F20808080000080808000010E3008C4
:100B7B0006010080800080008080800F300C030C09
:100B8B00300F0000808000808080000020312E0E0E
:100B9B00312000808080000080808080818E7018E2
:100BAB0006010000808080808080000021302C2294
:100BBB0021300000000000807C02020000000000D9
:100BCB003F404000000000FF00000000000000FF5D
:100BDB000000000002027C800000000040403F004B
:100BEB0000000000060101020204040000000000E6
:100BFB00000000020E876E00807CB1337CB033683E
:100C0B000D0468EF7CB5337CB43378037F1022047A
:100C1B0068E17D5092F77D457D51BF2140067C8078
:100C2B007F017F12120E4A7EA1D05CB004780320A4
:100C3B00D5C17CB00478075002B2D5020E8F92D585
:100C4B00BE80FF68F67CB89CB06C00602AB41805B7
:100C5B007C41020E6350FB80032F00047C9B5E9053
:100C6B000778F630E4067C437D106D0030E3087C9A
:100C7B00437C327C210A0030F5199F10780E22023A
:100C8B000E8C1B8068F92F1150020B707CB530E76E
:100C9B00F1801B2D317CB5A5397C5B50110B807815
:100CAB0003020E8F1E341350034E60801A2B020E5C
:100CBB00635D22680D5D0078122D220B4068099F41
:100CCB0011222D000B0078F9020E87120E4A5C8060
:100CDB000B806808248150072CB0500A020E8F2C11
:100CEB00B04003020E8C7C8B5D1178267CB17CA509
:100CFB00BE1080680A5D33780DA5BD80057F10029C
:100D0B000E796D0080307F017C5B7CB17CA5AD12D0
:100D1B0080245D337806A5BD80F080E1CA887D41D3
:100D2B00AD437CB17CA5AD122D1450020B047C5B42
:100D3B00AD232F01DA88A42D05BE008040060B8061
:100D4B00780480982F007C437C507C617C72020E6F
:100D5B006374F86CAA6E40806E0080BEB0FF68278B
:100D6B007C837C975C3B5C7BBF10682AF4400D7CDA
:100D7B00382D15F45C3B500F0B04800B7C792D3513
:100D8B00F45C7B50020B24BF10680B7CB020E70691
:100D9B007CB420E701B3225D226809BE24FFFF6803
:100DAB00036E4080227EA020800C7EA01080057EEA
:100DBB00A0086C556D333392D5500A6E34FFFF6E1D
:100DCB0024FFFF0B1CA5EC3340062F11D5F0F622A8
:100DDB007CBA247EA2D5137C767C65A5CC92E77C6D
:100DEB005B227CB5337CB43392D54E50802481404A
:100DFB00039F11227C457C567C676C7724E0500E58
:100E0B007E1CFFFF221E341E2450034E608004788C
:100E1B00F430D50A6E34FFFF6E24FFFF0B1C227FCC
:100E2B00707F517EC400017ED400287E940E3D025B
:100E3B000EC84005E47A7BB0227A7BB00B7C222D66
:100E4B000092D50E104E10807D422D445002B2D52B
:100E5B004E50806C447CB8222C4450120B1C7E40AC
:100E6B00005E507FBE18000078040B806816A2D578
:100E7B007CB8137C4B7CB592E77C5B227E1CFFFF1E
:100E8B00229F11227E24FF8020D5026C456D3322D8
:100E9B00540F2490D43440D430F30CBEB0414007EF
:100EAB00BEB05B500224204CCC68021BC00B84D319
:100EBB0089944CCC680B7420120EB280F5CA3B6D32
:100ECB00889F337CAE7E5BB00B5C7007C37D38DADA
:100EDB003B8994B42569C2F37E5BB00B5CA5F82407
:100EEB00D0BEB00A501B7E500A20F60DAC5CA52D6F
:100EFB007CCB70034EF00180DDAC5DA52D7CDB80DF
:100F0B00D524CFBEB01AA5E850055E00DFD2F39012
:100F1B00129DA3E4936011BCB078F77417934CAB9C
:100F2B0030F6B34EF08080AEA3E4936010BCB07883
:100F3B00F77416937C3B7423937C2B89147CB080C1
:100F4B00137420120EB220F205BEC00250F31B6DBB
:100F5B0029B60001120EB2020EBD1B6E69160002FD
:100F6B000B6A00BE08000078087E0400FF7E1400A8
:100F7B000320F21E4CCC681A7F10E47E1B804C8839
:100F8B0068070B1C04BCBD78F2C2F6CA0B12109C8E
:100F9B00DA0B7E0BB060C0CA0B120EB2DA0B0B0C65
:100FAB004CDD68EE1BD078EA80ADD2F07E1010805D
:100FBB00037E10085EB05F800AD2F67E100A8005B1
:100FCB007E100AC2F66D119F117E00201B6C7E6B8A
:100FDB007030F6021A3720F1051B6C7E6B6030F611
:100FEB00041A261A2430F0051B6D0B6A20A5EC336E
:100FFB0082F692F6500A7CEA9F229F217F127CAEEA
:10100B004C44780F7C457C567C676C772E00F878C7
:10101B00EF80122F117CB3337C3B9CB140047C3BA3
:10102B000B70A5D8EE7CB230E005DAB8C44C3BCAE5
:10103B00380B207E00207E3000BE18000078C1BE29
:10104B001008780730F404C2F480B5CA287CB2BC0F
:10105B00BD38027CBD12109CDA28BC2D500A1BD067
:10106B00E4CA28120E9B80F07CB213DAB84004C499
:10107B00CAB8C4CA28BEF08040095CDD7805A5DA81
:10108B000260065EF07F120E9BDA28A5DADA020EFA
:10109B00BDBEF001680F30F402240220F50620F7E4
:1010AB000330F6010420F229BCBC5025CAB87CBF22
:1010BB0013B0E67420501174307C8A5E80F068089F
:1010CB001210DC5EA00F8003120EB2DAB8BCBC7833
:1010DB00DB30F40F7430120EB2745830F3027478A4
:1010EB00120EB230F605742D020EB2742B20F5F8E9
:1010FB00742020F7F3221B6C7E6BB010F1021B6C7B
:10110B0020F60B30E704F404D2F27CCB800520E709
:10111B00057CDB020EE15EF07F80F81B6E6916002A
:10112B00020B6A0030F0076D221B0A200B0D1B0A05
:10113B0080020ECCE46C22BE3007500B7F1F2D318A
:10114B002E34FFF77E39B0227CBF20E7A8742E4ED9
:10115B00F080020EB2121286403D7CBD7003047CFF
:10116B00DB12139D7C3D4C3368101B307CBE20E49E
:10117B000912113F70044C3378F07CBD7CD3BEA0B8
:10118B00FD481CBCAB5818E49CBA2CB31801E47C8A
:10119B00DB021227121286406E7CBD0412139D7A5D
:1011AB00FBA07CAE7CBDA2F492F0C2F440026001C5
:1011BB0004240512109C7E30FF0B3012113FCA38ED
:1011CB00120E9B20F0044CDD6803121153DA38BC6D
:1011DB003D78E6740E120E9B742B7EFBA030F70746
:1011EB00742D6EA0FF0BA07AFBA0120EB27EA00A8C
:1011FB007EFBB0847AFBA0120E9B7EFBB0120E9B83
:10120B009EF80008020EBDD2F27ED000020F7C12B7
:10121B00128640F37CBA2CBD0412139D7AFBA07C82
:10122B00BA7CAE30E701E40420F4044CDD6805D24F
:10123B00F0C2F4042CBD12109C6C337EFBB0601B0F
:10124B0020E712147AFBB012113FCA38120E9BDA48
:10125B00380B3080E6047AFBB01B3012113FCA38D2
:10126B00120E9B4CDD68071211531BD080E19EF8C8
:10127B00000930F003121153020EBD7CEA7CAF1053
:10128B00F7037ED0067CFA1B6E693600020B6A20D0
:10129B000212E52D2B204C4248232E0053584F446D
:1012AB00494355502A4E4645470004208001020011
:1012BB00104065B7BCC4C451CBB501261A9F600F53
:1012CB000F0F0F0F0F0F0F11111211114E614E0057
:1012DB002B494E46002D494E46007D522D557CBE66
:1012EB0092E67CEB7CBA601F0470287CB5C2E77E6B
:1012FB000400FF60067E1412D7D3227E1412E04046
:10130B00047E1412DBD322DA099F22CA2BCA2BC309
:10131B00CA09220A0A7E144D10AD109E083AF09E9F
:10132B0010267CB5C2E77EA0567C9BA46E54FFFFB3
:10133B002E54C511ACA92D15E4A539CAB8CA1B206A
:10134B00E70A121491DA1B1213E0800AF404121448
:10135B0091DA1B120CBCDAA87CB5337CB4334E503B
:10136B00806C4424822F111478FBDA497407BE4039
:10137B000A40099E400ACA0201140BA0CA486C44D9
:10138B002F117F012F112F112F101478EFCA48CA7C
:10139B0049227F0F20E73ABEB007400274070A0BC1
:1013AB002D109E1400097E19B02EB0FB501F4C114E
:1013BB006817E47A19B01B147E19B0047A19B0B40B
:1013CB000A0BE47A19B0A5D9ED0BA074017A19B008
:1013DB00225EE0BF22BE24FFFF6806BE04FFFF783B
:1013EB0003020E87120E4A5CB00468F57CB8A54860
:1013FB0068EF7CB870039F1122A5B80003020E8F13
:10140B002E008150079C803807020E8C9C8050ED7B
:10141B000A51C2E74D517803020E797E5400807E4B
:10142B00901A6C0080061B9068142F11BF1040049B
:10143B009F104CAB0330E7EECAA86CAA80E8DA39F0
:10144B00DA587C4ABE5080500A1B8068BC2F115062
:10145B00020B70020E633F8000004120000042C867
:10146B000000447A0000461C400047C350004974FA
:10147B0024004B1896804CBEBC205A0E1BCA6753D7
:10148B00C21C749DC5AE7C7B600654076816232373
:10149B001214B67CB75438680A7F101214B3120CAE
:1014AB00BC7F01227CB7543803241C6CAA2E541425
:1014BB00617E4400FF0B2A006912000222C2D57C18
:1014CB00B430E708B2D56E24FFFF0B247CB630E7AF
:1014DB0012B2D56E34FFFF0B348D326E24FFFF0B2F
:1014EB002480028D3230D5066E34FFFF0B3422C2BE
:1014FB00D57CB030E708B2D59F229F207F027CB409
:10150B0030E713B2D59F229F217F121215309F22F5
:10151B009F207F02800312153030D5069F229F211A
:10152B007F12226D0074104D00780B4D2278278DA1
:10153B00317D126D22227D437D326D222F112D4480
:10154B005002A50FBF1040049F100B901478ED7F35
:10155B00016D227D34227D417D138D247D022F0070
:10156B004004BD0440049D040B141478F17D237DCD
:10157B00317D106D0022CA3B7F707CF77CEBE490D1
:10158B000046F0900049F09F007F17120D5C500D44
:10159B007401900049F07F17120DA27F717F171213
:1015AB000DED7F617CB4120DB07F017F17120C0122
:1015BB006D117E0442C8120CBC6D117E043F0012EB
:1015CB000C04120DED9000471BEA30BE340064484A
:1015DB000F9000470BEA309E3400641BEA300B6C13
:1015EB00BE68000078117EA0309000467401F09028
:1015FB00003A7AEBA080567F766CCC800D7E08008B
:10160B000A7F171214FA7F710BC0BE78000018ED19
:10161B007F766CDD802D7E68000A7F177F061214A3
:10162B00FA7F202E2800300A3C0A2D9D322E3400E2
:10163B00397A71827A6183F07F177F061214FA7FF1
:10164B00710BD0BCDC40CF9000467AEBC07EA02E55
:10165B009000467EEB707CB704F00A372E34003ACC
:10166B007A71827A61837AEBA09000470BEA00BE15
:10167B0004000A583C7EA0309000467EEB707CB78D
:10168B0004F00A172E14003A7A31827A21837AEB0E
:10169B00A07D502E5400307CAB9000467EEB707CCE
:1016AB00B704F00A172E14003A7A31827A2183801C
:1016BB00517E14000A7D307D211214C87D532E54A7
:1016CB0000307CAB9000467EEB707CB704F00A37A1
:1016DB002E34003A7A71827A61837AEBA07D307D69
:1016EB00211214C87D522E5400307CAB9000467EE4
:1016FB00EB707CB704F00A372E34003A7A71827A99
:10170B0061837AEBA0900049E060359000467EEB58
:10171B00D0801C0A3D2E3400397A71827A6183E0C5
:10172B000A3D2E34003A7A71827A6183F01BD0BE67
:10173B00D00038DF742D90003AF0900046E004F0B2
:10174B006CAA900046E00A3B2E34003A7A71827AFA
:10175B0061837AEBA07CBE7C7F7E14003A7E040012
:10176B0001121D24DA3B22CA3B90004A1BEA207966
:10177B003E00027F307E54203A7E4400FF693200E7
:10178B0003692200017E2B3090004E793E000379D5
:10179B002E00017AEB30C2917E34001412000ED26F
:1017AB00917E34001E121FA03091030218DE30917F
:1017BB00FD2091FDE4900053F0E4900054F0309143
:1017CB00FD7E340028121FA0900053E00A3B2E34FC
:1017DB00004E7A71827A6183E03EB07A71827A61CF
:1017EB0083F03091137A71827A6183E044017A71CC
:1017FB00827A6183F02091FD900054E004F0900018
:10180B0054E0B408B9900053E004F0900053E0B4F6
:10181B0005A790004FE00A0B90004EE00A1B2D101D
:10182B00900050E00A0B2D019000517EEB400A1402
:10183B002D10900052E00A3BBD3168030218DA7C90
:10184B00B430E7265E407FE4120DBA7E14CCCD7E19
:10185B00043DCC120CBC7F019000507EEB40E41297
:10186B000DBA120C04120DA280249000517EEB4095
:10187B00E4120DBA7E14CCCD7E043DCC120CBC7F91
:10188B00019000507EEB40E4120DBA120C04793338
:10189B0000021B3A2090004F7EEB40E4120DBA7E03
:1018AB0014CCCD7E043DCC120CBC7F0190004E7E3F
:1018BB00EB40E4120DBA120C047F0190004A693E12
:1018CB0000020BEA20791100021B1A00E480067457
:1018DB000280027401DA3B226D7790005D1BEA7087
:1018EB007D371A2E1A242F112E2400FF2E181FFCC1
:1018FB007E1BB0B4010C90005D0BEA302E3400104F
:10190B00800A90005D0BEA302E3400081BEA300B86
:10191B0074BE74001748C97E6400807E34006490E6
:10192B00005F1BEA30E4121F247401121F24900085
:10193B00631BEA606D777D371A2E1A242F112E2424
:10194B0000FF2E181FFC7E1BB0B401067E34001066
:10195B0080047E3400089000611BEA309000630B1A
:10196B00EA30BE340080584E9000610BEA202D23E4
:10197B00BE2400000840B4011C7CB76C777D171A9D
:10198B000E1A002F002E0400FF2E081FFD7E0B6089
:10199B00121C9E80219000630BEA506C777D171A06
:1019AB000E1A002F002E0400FF2E081FFD7E0B6069
:1019BB007E5010121BF59000610BEA209000630B18
:1019CB00EA302D321BEA309000630BEA30BE340054
:1019DB0080580B0B74BE74001758030219411B641B
:1019EB0090005D0BEA306E34FFFF0B34BD63580B78
:1019FB007E6400807E3401F412000E90005F0BEACF
:101A0B003012000E021930CA69CAF87E1400557ED6
:101A1B000400017E3400597E2400011217727CFBF6
:101A2B00121FAE7D63E47E70027E600A121C9E74F0
:101A3B00107E70027E600C121C9E74207E70027EE3
:101A4B00603A7E5010121BF5E47E70047E600A1221
:101A5B001C9E74107E70047E600C121C9E74207E83
:101A6B0070047E603A7E5010121BF5E47E70067E89
:101A7B00141FF77E0400FF121D2490006A0BEA204E
:101A8B007D369D32BE3407D05003021B1890006A7E
:101A9B001BEA604CFF784274307E700290005569EF
:101AAB001E00020BEA00121581E47E70027E141FE9
:101ABB00F17E0400FF121D2474307E7004900059D7
:101ACB00691E00020BEA0012158174507E70027EB3
:101ADB00141FEF7E0400FF803174307E70027E1481
:101AEB001FE37E0400FF121D24BEF001780F74303B
:101AFB007E70047E141FD77E0400FF800D74307E31
:101B0B0070067E141FC87E0400FF121D241218E3FA
:101B1B00DAF8DA6922121F597E3400C812000E74EB
:101B2B00AE6C77121F4174206C77121F4174026CDC
:101B3B0077121F41E46C77121F4174106C77121FE0
:101B4B004174406C77121F4174B06C77121F417453
:101B5B00816C77121F4174FF6C77121F4174A46C58
:101B6B0077121F4174A16C77121F4174C86C7712E6
:101B7B001F4174A66C77121F4174A86C77121F411A
:101B8B00743F6C77121F4174D36C77121F41E46C56
:101B9B0077121F4174D56C77121F4174806C7712CA
:101BAB001F4174D96C77121F4174F16C77121F416E
:101BBB0074DA6C77121F4174126C77121F4174DB4D
:101BCB006C77121F4174406C77121F41748D6C77C8
:101BDB00121F4174146C77121F4174AF6C77121F74
:101BEB0041121E81E46C77021EB5CA3B7CF77CEB7D
:101BFB000A369E3400207CD7BEE07F28086CEE0AA4
:101C0B003F0B357CF7A5BD105A7CBE7C7F121EB5F1
:101C1B006CCC7E7010AC7D0A2C2D322E34060E7AD5
:101C2B0071827A6183E4937E7001121F410BC0BEF7
:101C3B00C00878DE7CBE7C7F0B70121EB56CCC7E30
:101C4B007010AC7D0A2C2D322E3406167A71827AE6
:101C5B006183E4937E7001121F410BC0BEC00878F4
:101C6B00DE802D7CBE7C7F0B70121EB56CCC7E7023
:101C7B0006AC7D0A2C2D322E3400267A71827A61C5
:101C8B0083E4937E7001121F410BC0BEC00678DE49
:101C9B00DA3B22CA3B7CF67CE77CDBE490006CF001
:101CAB007CBD121EB56CCC7E5002AC5F3E243E2434
:101CBB003E243E243E240A3C2D322E34024E7A71B1
:101CCB00827A6183E4937E7001121F4190006CE075
:101CDB0004F00BC0BEC01078CE7CBD7C7E0B7012A6
:101CEB001EB56CCC7E5002AC5F3E243E243E243E9F
:101CFB00243E240A3C2D322E34026E7A71827A6194
:101D0B0083E4937E7001121F4190006CE004F00B92
:101D1B00C0BEC01040CEDA3B22CA3B7F309000667B
:101D2B007AEB70900065F0E4900067F080419000D2
:101D3B0065E09000667EEB709000677EEB600A2694
:101D4B007F032D127E0B607E5010121BF5900065E9
:101D5B00E02408F0900065E0BEB078280CE4900019
:101D6B0065F0900066E00BB1F0900067E004F09036
:101D7B000067E00A3B2D377D267E1BB070B0DA3B47
:101D8B002275E900A9D7BA75EA007594007593001E
:101D9B0075920075910075960075950075B200757A
:101DAB00B10075B40075B30075CA0075C90075CC68
:101DBB000075CB0075E20075E100121F6F121EDE7D
:101DCB00E4121FBB121B20121E817E3403E812008B
:101DDB000ED2ACD2AFE46C777E60417E5010121BFA
:101DEB00F580FECA59CA1BC0D1C0D0C083C0823097
:101DFB009904C299C200309829C2987EA19990008B
:101E0B0029E00A3B7D232E24002A7A51827A4183D2
:101E1B007AEBA00B347E2400101214C87CB5900012
:101E2B0029F0D082D083D0D0D0D1DA1BDA593275D9
:101E3B0084017E44041FE47A49B01B4478F97EF890
:101E4B0000207E0400FF7E14202A0B0A405D4468AC
:101E5B0022295000020A25693000032E0800050BC9
:101E6B0044800A7E0BB07A1BB00B1C0B0C1B447806
:101E7B00F280D7021F82CA796CFF7CBF24B06C77CB
:101E8B00121F41E46C77121F4174106C77121F41C3
:101E9B006CEEE47E7001121F410BE0BEE08078F225
:101EAB000BF0BEF00840D3DA7922CAF87CFB7CB782
:101EBB0024B06C77121F417CBF54F0C4540F4410F4
:101ECB006C77121F417CBF540F44016C77121F417A
:101EDB00DAF822A9C7A2A9C6A275985075D7E875DA
:101EEB00D6FFA9D08EA9D28EA9D48EE4900029F06A
:101EFB00900028F0C20022CA39C0D1C083C08275BD
:101F0B008CFC758A189000680BEA300B341BEA3096
:101F1B00D082D083D0D1DA3932CAF87CABE47C7A68
:101F2B00121EB56CFFE47E7001121F410BF0BEF068
:101F3B008040F2DAF8227CA77C7B4CAA6804D2A101
:101F4B008002C2A1C2A27CB7121F92D2A222E5A22A
:101F5B0054F34404F5A275CE9043CE40C2A5D2A350
:101F6B0075CDC022538E7F5389F0758A18758CFC02
:101F7B00C28DD28CD2A922121D8C9F007E341FC61B
:101F8B007E2400FF020E2A7AB1CFA9A7CDE43368D5
:101F9B00F975CDC02280030000007D231B344D2238
:101FAB0078F522C2AF9000680BEA306D22D2AF22D7
:101FBB007C7B2000FDD2007A71992230004368654A
:101FCB00636B73756D204572726F72004E6F20528A
:101FDB006573706F6E7365004448543131204572E0
:101FEB00726F7200250048756D693A00436F323A83
:101FFB000001000101005300540043003300320084
:10200B004700310032004B003100320038010E0125
:10201B000201030104010501060107010801090082
:10202B00020100680000000201006A0000000000CD
:04203B0000000000A1
:00000001FF
