:020000040800F2
:1000000040040020F1030008F9030008FB03000886
:10001000FD030008FF0300080104000800000000C1
:1000200000000000000000000000000003040008C1
:100030000504000800000000070400080904000887
:100040000B0400080B0400080B0400080B04000854
:100050000B0400080B0400080B0400080B04000844
:100060000B0400080B0400080B0400080B04000834
:100070000B0400080B0400080B0400080B04000824
:100080000B0400080B0400080B0400080B04000814
:100090000B0400080B0400080B0400080B04000804
:1000A0000B0400080B0400080B0400080B040008F4
:1000B0000B0400080B0400080B0400080B040008E4
:1000C0000B0400080B0400080B0400080B040008D4
:1000D0000B0400080B0400080B0400080B040008C4
:1000E0000B0400080B0400080B040008DFF80CD018
:1000F00000F0ECFF004800474102000840040020E7
:100100000CB50020019000904848006840F4803011
:100110004649086000BF4548006800F40030009080
:100120000198401C0190009818B90198B0F5A06F93
:10013000F1D13E48006800F4003010B10120009079
:1001400001E0002000900098012843D13848006861
:1001500040F01000364908600846006820F00300AF
:1001600008600846006840F0020008602F484068B8
:100170002E4948600846406848600846406840F498
:10018000806048600846406820F47C10486008465B
:10019000406840F4E81048600846006840F080700D
:1001A000086000BF2148006800F000700028F9D006
:1001B0001E48406820F003001C494860084640681B
:1001C00040F00200486000BF1848406800F00C0092
:1001D0000828F9D10CBD10B5FFF792FF10BD10B57E
:1001E0001248006840F00100104908600846406865
:1001F000104908400D494860084600680E4908400B
:100200000A4908600846006820F480200860084613
:10021000406820F4FE0048604FF41F008860FFF73C
:10022000DAFF4FF000600549086010BD0010024081
:10023000002002400000FFF8FFFFF6FE08ED00E09E
:1002400000F016FB00F010F84FF4165000F082F8A2
:1002500009E04FF47A7000F044F84FF47A7000F03F
:1002600040F800F053FBF4E710B56FF0040000F025
:1002700003F92E4800682E49B0FBF1F02D490870B3
:100280000846007800EB4001C1EBC0104FF6FF714B
:1002900001EAC0002849088010BD0146254A1278AD
:1002A0004A434FF0E0235A6100229A611A461269CC
:1002B00042F001021A6100BF4FF0E022106900F025
:1002C00001021AB100F48032002AF5D04FF0E0228A
:1002D000126922F001024FF0E0231A6100229A61B4
:1002E00070470146144A12884A434FF0E0235A618E
:1002F00000229A611A46126942F001021A6100BF97
:100300004FF0E022106900F001021AB100F48032CF
:10031000002AF5D04FF0E022126922F001024FF0DE
:10032000E0231A6100229A6170470000000000205B
:1003300000127A00140000201600002000BF2A4A94
:10034000128802F04002002AF9D0C2B2264B1B1DCF
:100350001A80704710B586B00446012144F20400AB
:1003600000F054FA204800F02FF94FF40070ADF877
:10037000140003208DF8160018208DF8170005A929
:100380001A4800F093F84FF48060ADF81400042090
:100390008DF8170005A9154800F088F825208DF87C
:1003A000000003208DF801008DF8020001208DF877
:1003B0000300684600F02EF801940020ADF8080014
:1003C000ADF80A00ADF80C00ADF810000C20ADF847
:1003D0000E0001A9044800F03AF90121024800F09A
:1003E0009FF906B010BD0000003801400008014030
:1003F0000648804706480047FEE7FEE7FEE7FEE7BF
:10040000FEE7FEE7FEE7FEE7FEE7FEE7DF010008A6
:10041000ED00000870B5002100230F22C47804B35A
:100420001F4C246804F4E064C4F5E064210AC1F1BF
:100430000403CA40447804FA03F184781440214349
:100440000901184C0678A155047804F01F05012411
:10045000AC4005786D11AD0005F1E025C5F800410F
:1004600009E0047804F01F050124AC400E4D067825
:10047000761145F8264070BD042808D14FF0E021E0
:10048000096941F004014FF0E022116107E04FF0EB
:10049000E021096921F004014FF0E0221161704769
:1004A0000CED00E000E400E080E100E02DE9F04127
:1004B000024600250026002000230024002791F892
:1004C00003C00CF00F0591F803C00CF0100CBCF148
:1004D000000F03D091F802C04CEA050591F800C066
:1004E000BCF1000F31D0146800202BE04FF0010C5C
:1004F0000CFA00F3B1F800C00CEA03069E4220D1CA
:1005000083004FF00F0C0CFA03F7BC4305FA03FC11
:100510004CEA040491F803C0BCF1280F06D14FF057
:10052000010C0CFA00FCC2F814C00AE091F803C0F8
:10053000BCF1480F05D14FF0010C0CFA00FCC2F8D9
:1005400010C0401C0828D1D31460B1F800C0BCF121
:10055000FF0F34DD546800202EE000F1080C4FF04E
:10056000010808FA0CF3B1F800C00CEA03069E4239
:1005700021D183004FF00F0C0CFA03F7BC4305FAAE
:1005800003FC4CEA040491F803C0BCF1280F05D128
:1005900000F1080C08FA0CF8C2F8148091F803C0B6
:1005A000BCF1480F07D100F1080C4FF0010808FA20
:1005B0000CF8C2F81080401C0828CED35460BDE867
:1005C000F08141617047000010B504465A488442EA
:1005D00009D10121880300F026F900214FF4804061
:1005E00000F021F932E05548844209D10121480444
:1005F00000F026F900214FF4003000F021F925E049
:100600004F48844209D10121880400F019F90021E2
:100610004FF4802000F014F918E04A48844209D1D0
:100620000121C80400F00CF900214FF4002000F073
:1006300007F90BE04448844208D10121080500F085
:10064000FFF800214FF4801000F0FAF810BD2DE9FA
:10065000F04786B005460E460024A24600BFA146DC
:100660000027B08900B100BF2F462C8A4CF6FF70DE
:100670000440F08804432C82AC894EF6F310044009
:10068000B08831890843718908430443AC81AC8A3E
:100690004FF6FF400440B0890443AC8201A800F04B
:1006A00055F82548874202D1DDF810A001E0DDF8B9
:1006B0000CA0A88900F4004040B10AEBCA0000EB8E
:1006C0000A1031684900B0FBF1F807E00AEBCA00F4
:1006D00000EB0A1031688900B0FBF1F86420B8FB28
:1006E000F0F004012009642101FB1089A88900F4BD
:1006F000004040B1322000EBC900B0FBF1F000F047
:100700000700044308E0322000EB09106421B0FB2D
:10071000F1F000F00F0004432C8106B0BDE8F08733
:1007200021B1828942F40052828104E082894DF62F
:10073000FF731A4082817047003801400044004036
:1007400000480040004C00400050004030B50021FF
:10075000002200240023414D6D6805F00C0121B1F9
:10076000042905D0082923D105E03D4D056022E08C
:100770003B4D05601FE0394D6D6805F47012374D33
:100780006D6805F48034022505EB92421CB9354DA5
:10079000554305600BE0314D6D6805F400351DB122
:1007A000304D5543056002E02D4D5543056002E094
:1007B0002B4D056000BF00BF284D6D6805F0F001AE
:1007C0000909294D6B5C0568DD404560234D6D6866
:1007D00005F4E061090A244D6B5C4568DD408560E5
:1007E0001E4D6D6805F46051C90A1F4D6B5C45686C
:1007F000DD40C560194D6D6805F44041890B1B4D06
:100800006B5CC568B5FBF3F5056130BD29B1134AD2
:1008100092690243114B9A6104E0104A9269824343
:100820000E4B9A61704729B10C4AD26802430B4BB8
:10083000DA6004E0094AD2688243084BDA60704704
:1008400029B1064A12690243044B1A6104E0034AC3
:1008500012698243014B1A61704700000010024088
:1008600000127A0000093D00180000202800002036
:1008700008B501210820FFF7C9FF4FF4C040ADF8CB
:10088000000014208DF8030003208DF80200694653
:100890009448FFF70BFE4FF4C0419248FFF791FEDA
:1008A00008BD2DE9F04100240027002529E007E0DC
:1008B000701C80B206464CF25031884200DB03E0E7
:1008C000894800680028F3D000BF1E20FFF7E5FC30
:1008D00000278548006800B10127002607E0701C4A
:1008E00080B206464CF25031884200DB03E07E487D
:1008F00000680028F3D100BF6006040E3C43681C6A
:10090000C5B2082DD3DB2046BDE8F0812DE9FE4FAE
:100910007448001D006820F070607249091D08606D
:100920000846006840F04070086000206E49803141
:1009300008601420FFF7D5FC01206C49C1F8B8010C
:100940006848001D006820F070606649091D086055
:100950000846006840F0006008601E20FFF79DFC1C
:100960000020634908706048006800287ED101209B
:1009700008704FF0000909E009F101008146B0F567
:10098000FA7F03D301205B49087003E056480068F2
:100990000028F1D000BF4FF0000909E009F1010083
:1009A0008146B0F5487F03D301205249087003E027
:1009B0004D4800680028F1D100BFFFF772FF0646DE
:1009C000FFF76FFF0746FFF76CFF0546FFF769FF6C
:1009D0000446FFF766FF8046F0192844204400F0E3
:1009E000FF0AD04569D106EB860107EB410000F014
:1009F00007F94149086004F0800058B104F07F0114
:100A000005EB850201EB4201484200F0F9F83B4951
:100A1000086007E005EB850104EB410000F0F0F809
:100A20003649086036493448006800F00FF902D2B0
:100A300033483149086033492F48006800F0FCF81A
:100A400002D230482C4908602F492C48006800F039
:100A5000FDF802D22C48294908602C492748006833
:100A600000F0EAF804D22948244900E031E00860A7
:100A700027492248006800F085F820490860244989
:100A80001D48006800F07EF81B4908601B4800689C
:100A900000F0BFF802460B46CDE900011DA000F0B2
:100AA000B5FB1548006800F0B4F802460B46CDE9E6
:100AB00000011EA000F0AAFB11E022A000F0A6FB9E
:100AC0002B463A46314623A08DE8100500F09EFBE8
:100AD00005E000200749087025A000F097FB0120E1
:100AE000BDE8FE8F000C0140388121420080214288
:100AF0003400002035000020300000202C000020B1
:100B000000806D440000484300001644000048C3C4
:100B1000000020410D0ACEC2B6C8CEAA3A20202538
:100B20002E31662020A1E60D0A000000CAAAB6C830
:100B3000CEAA3A2020252E31662020252552480DA8
:100B40000A00000043414C204572726F7221210D52
:100B50000A0000002564200D2564200D2564200D69
:100B60002564200D2564200D2564200D0A00000059
:100B700053656E736F72204572726F7221210D0A78
:100B80000000000030B480EA010202F0004530F0BD
:100B9000004221F0004013D090B1C30DD40DC2F338
:100BA0001601C0F31600E41A41F4000140F40002FB
:100BB0007D34914201D3641C00E04900002C02DA2C
:100BC00030BC002070474FF400000023914201D355
:100BD000891A034340084FEA4101F7D151B19142CC
:100BE00002D14FF0004105E002D24FF0010101E0D7
:100BF0006FF0010103EBC450284430BC00F077B81B
:100C0000C10F80EAE0700844CA079623002100F073
:100C100077B800F0004230F000400AD0C10D01F575
:100C20006071C0F3160042EA0151C2084007114347
:100C30007047002001467047002801DBC0F10040EA
:100C4000002901DBC1F1004181427047002801DB2E
:100C5000C0F10040002901DBC1F10041884270472A
:100C600030B50B46014600202022012409E021FA7C
:100C700002F59D4205D303FA02F5491B04FA02F579
:100C80002844151EA2F10102F1DC30BD2DE9F05F10
:100C90000546002092469B468846064681464024EB
:100CA0001BE0284641464746224600F030FA5346AC
:100CB0005A46C01A914110D311461846224600F0F8
:100CC00017FA2D1A67EB01084F4622460120002132
:100CD00000F00EFA17EB00094E41201EA4F10104AA
:100CE000DFDC484631462A464346BDE8F09F0029EE
:100CF000A8BF7047401C490008BF20F001007047A2
:100D000010B4B0FA80FC00FA0CF050EA010404BF01
:100D100010BC704749B1CCF1200421FA04F411FA57
:100D20000CF118BF012121430843A3EB0C01CB1D9B
:100D30004FEA00614FEA102042BF002010BC70470C
:100D400000EBC35010440029A4BF10BC7047401CE6
:100D5000490008BF20F0010010BC70472DE9FE4F8C
:100D6000804681EA0300C00F0C46009021F000414C
:100D700023F00045B8EB0200A94105D240462146C8
:100D800090461C460B46024623F00040104347D0D5
:100D9000270DC7F30A00C3F30A510290401A0190CD
:100DA00040286BDAC3F3130040F4801B009892468E
:100DB00020B10023D2EB030A63EB0B0B01985946D9
:100DC000C0F14002504600F093F906460D465046E9
:100DD0005946019A00F0ABF910EB0800614100247C
:100DE00087EA115284EAE7731A4340D0009A62B34B
:100DF000019A012A4FEA075215DC001B61EB020140
:100E00004FF0004202EA0752CDE90042001C41F5D2
:100E1000801132462B4600F0ABF903B0BDE8F08FED
:100E200040462146F9E7001B61EB0201001C41F539
:100E3000801300185B412018A2F5001747EB03014F
:100E400040EAD570B6196D4111E06D084FEA3606DB
:100E500045EAC0754FEA0752001B61EB0201001C16
:100E600041F5801149084FEA3000001951413246DE
:100E70002B4603B0BDE8F04F00F06BB9009801229B
:100E800040000023D0EB020263EBE07300982146A0
:100E90004FEAE074B8EB000061EB0401E9E783F08E
:100EA00000435BE781F0004158E72DE9FE4F81EAFE
:100EB000030404F0004421F0004100944FF0000BC3
:100EC00023F0004350EA01045ED052EA03045BD0F1
:100ED000C3F30A54C1F30A552C44A4F2F334019429
:100EE000A0FB0254C1F3130141F48011C3F31303B7
:100EF00043F4801301FB024400FB034E840A970A6B
:100F000044EA815447EA8357A4FB076802958D0A97
:100F100005FB07854FEA932C04FB0C542705029D23
:100F20004FEA065847EA1637B5EB08056EEB070C93
:100F3000870E920E47EA811742EA8312A7FB02014D
:100F4000B6EB0B0164EB00042B0D43EA0C335E1887
:100F500044EB1C50DA465146E7FB0201C5F313048B
:100F60004FEA0B3343EA14534FEA0432019C43EA3D
:100F70000603A4F10C040294009CCDE900B400F037
:100F8000F7F803B0BDE8F08F00200146F9E72DE93E
:100F9000F04D81EA030404F0004B21F000451446B3
:100FA0004FF0000A23F0004150EA050220D054EA35
:100FB00001021DD0C5F30A570246C5F31303C1F35E
:100FC0001300C1F30A5640F4801543F48013A7EBD5
:100FD0000608101BD64608F2FD3873EB050002D355
:100FE00008F1010801E092185B41B8F1000F03DA43
:100FF00000200146BDE8F08D00204FF48011064628
:1010000084460EE0171B73EB050705D3121B63EB39
:10101000050306434CEA010C49084FEA30009218D8
:101020005B4150EA0107EDD152EA030012D082EA97
:10103000040083EA0501084305D0101BAB4106D22A
:101040000122002306E000224FF0004302E06FF08F
:10105000010253101AEB06004CEB085110EB0A008A
:1010600041EB0B01BDE8F04D00F073B8C1F30A523B
:10107000C1F3130140F2FF3341F480119A4202DAC6
:1010800000200146704740F233439A42A2F23342B5
:1010900002DC524200F03BB800F02AB830B5041E22
:1010A00071F1000404DB4FF00044404264EB0101A5
:1010B000141E73F1000405DB1C464FF0004352423E
:1010C00063EB0403994208BF904230BD064C074DC4
:1010D00006E0E06840F0010394E807009847103408
:1010E000AC42F6D3FFF706F8001B0008201B0008EF
:1010F000202A04DB203A00FA02F1002070479140D8
:10110000C2F1200320FA03F3194390407047202ACC
:1011100004DB203A21FA02F00021704721FA02F3A1
:10112000D040C2F120029140084319467047202A5E
:1011300006DBCB17203A41FA02F043EAE07306E0FF
:1011400041FA02F3D040C2F120029140084319460F
:10115000704710B5141E73F1000408DA401C41F109
:10116000000192185B411A4301D120F0010010BD2B
:101170002DE9F04D92469B4611B1B1FA81F202E0A1
:10118000B0FA80F220329046FFF7B2FF04460F46D5
:1011900040EA0A0041EA0B0153465A46084313D07D
:1011A000114653EA010019D0C8F140025046FFF73A
:1011B000AEFF05460E46504659464246FFF798FF99
:1011C000084305D0012004E020463946BDE8F08DF3
:1011D0000020054346EAE0762C4337430A9863052E
:1011E000E40AA0EB08000022FD0A44EA47540A3052
:1011F00002D500200146E9E7010510196941DDE942
:10120000084500196941BDE8F04DA2E70FB4054B50
:1012100010B503A9044A029800F0DAF810BC5DF892
:1012200014FB00003D0300083800002002E008C85D
:10123000121F08C1002AFAD170477047002001E050
:1012400001C1121F002AFBD1704700002DE9FF5F8A
:1012500082B00021DDE90430020DDDF840B0034327
:1012600018D044F61050A2F2FF32424315141198E0
:1012700001281FD0A5EB0B00401C5FEA000A4FF0CD
:1012800000064E4FDFF83891B046504615D5CAF1EA
:10129000000413E0119801244AA3012801D16FEA48
:1012A0000B010298119AC0E90031C0E9024206B070
:1012B000BDE8F09FCBF10000DFE704460021404A83
:1012C000491842EB0450CDE9001012E0E00707D0C6
:1012D00032463B4640464946FFF7E7FD8046894691
:1012E00032463B4610461946FFF7DFFD06460F46DD
:1012F0006410002CEAD1DDE90401DDE90023BAF134
:10130000000F06DAFFF7D1FD42464B46FFF7CDFD51
:1013100005E0FFF73CFE42464B46FFF738FE044629
:101320000E460022284BFFF7B9FE03D84FF0FF30DE
:10133000014607E00022254B20463146FFF70EFD0F
:10134000FFF794FE102409E0002C0ADB0A22002398
:10135000FFF79CFC039B30321A55641E50EA0102D1
:10136000F2D1641C039AC4F111031444119A012AA6
:1013700003D0012208430DD10AE0084304D0002025
:101380004FF0110B119072E7A3EB0B056D1E0DE0F2
:101390005B4504DD4FF0000205F1010504E003DACE
:1013A0004FF00002A5F10105002AECD00298119936
:1013B000C0E90231C0E9004579E7000000001440AF
:1013C0000000F03F300000000000F0430000E03F6C
:1013D0002DE9FF4F95B09B468946064600250FE252
:1013E000252877D100242746F84A0121059400E0FA
:1013F000044316F8013F203B01FA03F01042F7D1F5
:1014000030782A2811D06FF02F033078A0F1300205
:10141000092A16D8059A44F0020402EB820203EB73
:1014200042021044761C0590EFE759F8042B059210
:10143000002A03DA504244F40054059044F00204B8
:10144000761C30782E2816D116F8010F44F00404CB
:101450002A280DD06FF02F023078A0F13003092B2D
:1014600009D807EB870302EB4303C718761CF3E7A1
:1014700059F8047B761C30786C280FD006DC4C2899
:1014800017D068280DD06A2814D104E0742810D031
:101490007A280FD10DE044F400140AE044F48014DB
:1014A00001E044F440147278824202D104F58014C1
:1014B000761C761C307866280BD013DC582877D041
:1014C00009DC002875D04528F6D04628F4D04728F6
:1014D0001AD19DE118E0632835D0642879D06528B9
:1014E00012D195E1702873D008DC6728F1D0692803
:1014F0006FD06E280DD06F2806D1B5E073282CD0A0
:10150000752875D0782874D05A46179990476D1C65
:1015100075E1C4F30250022809D003280DD0D9F890
:10152000001004280DD00D6009F1040967E1D9F815
:101530000010EA17C1E90052F6E7D9F800100D8053
:10154000F2E70D70F0E719F8041B8DF80010002089
:101550008DF80100EA46012003E059F804AB4FF092
:10156000FF3061074FF0000102D40DE008F10101E6
:101570008846B9420FDA8045F8DB1AF808100029CE
:10158000F4D108E008F1010188468142FADB1AF83B
:1015900008100029F6D105985B46A0EB0807214604
:1015A0003846179A00F094FA284400EB080507E043
:1015B0004DE029E10DE01AF8010B5A4617999047C2
:1015C000B8F10108F7D25B4621463846179A13E175
:1015D00042E00A220092C4F302524FF0000A022AAB
:1015E00008D059F804CB032A4FEAEC710AD00DE079
:1015F00029E02AE009F1070121F00702F2E802C11F
:10160000914609E00FFA8CFC4FEAEC71042A03D1F1
:101610004FFA8CFC4FEAEC71002907DA0A460021E8
:10162000DCF1000C61EB02012D2202E0220504D561
:101630002B228DF80420012203E0E20701D02022B2
:10164000F7E7904659E00A2102E010220DE0102150
:101650004FF0000A00910BE010224FF0000A44F016
:1016600004040827009203E008224FF0000A0092C9
:10167000C4F30252022A05D059F804CB0021032AF0
:1016800008D009E009F1070121F00702F2E802C1E0
:10169000914605E01FFA8CFC042A01D10CF0FF0CE6
:1016A0004FF00008220728D5702806D0009B83F051
:1016B000100353EA0A0305D00EE040228DF80420FF
:1016C000012208E05CEA010206D030228DF80420F5
:1016D0008DF8050002229046009B83F0080353EA30
:1016E0000A030AD15CEA010201D1620705D5302262
:1016F0008DF804204FF001087F1E582804D034A034
:1017000003900EA802900DE036A0F9E7534660461C
:10171000009AFFF7BBFA84460398825C0298401E49
:10172000029002705CEA0100F0D1029806A9081A42
:1017300000F1200A600702D524F4803400E001277C
:10174000574502DDA7EB0A0000E0002000EB0A018C
:10175000009005984144401A0590E00306D45B468A
:101760002146179A059800F0B3F90544002706E0D2
:1017700001A85A46C05D179990476D1C7F1C4745CC
:10178000F6DBE0030CD55B462146179A059800F07E
:101790009FF9054404E030205A46179990476D1C84
:1017A0000099481E00900029F5DC08E00298029993
:1017B0005A460078491C0291179990476D1CBAF15E
:1017C0000001AAF1010AF1DC65E10000092801002D
:1017D00030313233343536373839616263646566A7
:1017E0000000000030313233343536373839414269
:1017F000434445460000000000F058F90544761CBB
:10180000307800287FF4ECAD19B02846BDE8F08FA1
:10181000620700D4062709F1070222F0070CFCE852
:101820000223E14603F000485FEA080C02D00FF201
:10183000702C0DE05FEA045C02D50FF2682C07E023
:101840005FEAC47C02D00FF2602C01E0AFF2700CB2
:101850004FF0FF3823F00043CDF850C065280CD07E
:1018600006DC452809D046281DD047283DD13DE05B
:10187000662818D067287ED138E00021112F01DBBF
:10188000112000E0781CCDE9000106A90EA8FFF7A1
:10189000DDFCDDE90F010E9A03910021009207F1B2
:1018A000010A04914DE04FF000400097CDE901108E
:1018B00006A90EA8FFF7CAFCDDE90F0203920E9BF2
:1018C00011990022DDF80CA00093049211B9791C43
:1018D00000EB010AB7EB0A0004D4C0F1FF3007F1B6
:1018E000010A0490AAEB0700019044E0012F00DAFE
:1018F00001270021112F01DD112000E03846CDE93C
:10190000000106A90EA8FFF7A1FCDDE90F010E9A60
:101910000391002104910092BA4621070CD4039947
:10192000514500DA8A46BAF1010F05DD009AAAF1A5
:101930000101515C302908D0B84202DA10F1040FDD
:1019400006DA0121CDE9011015E0AAF10101E9E76C
:10195000002805DC049901440491AAEB000102E08F
:10196000411C514500DD8A460499401A401C0190F3
:101970004FF000400290200704D40198504501DB4D
:10198000CDF8048000208DF84F0002980DF14F072C
:10199000B0F1004F25D02B200E9002984FF0020896
:1019A00000280CDA404202902D200E9007E00A2118
:1019B0000298FFF755F93031029007F8011DB8F190
:1019C0000001A8F10108F2DC02980028EFD1791E8D
:1019D0000E980870307800F0200040F0450007F8BD
:1019E000020D12A8C01B00F107081498007800B17E
:1019F000012000EB0A01019801EBE07105984144D8
:101A0000401A401E0590E00306D45B462146179A13
:101A1000059800F05DF805441498007818B15A460E
:101A2000179990476D1CE00324D55B462146179A11
:101A3000059800F04DF805441CE00498002807DBE9
:101A4000DDE90301884203DD0098405C179901E05D
:101A5000179930205A469047049805F10105401C1B
:101A600004900198401E019004D12E205A461799E7
:101A700090476D1CBAF10001AAF1010ADDDC05E016
:101A800017F8010B5A46179990476D1CB8F10001E1
:101A9000A8F10108F4DC5B462146179A0598ABE6ED
:101AA0002D0000002B000000200000002DE9F04177
:101AB000044600251E461746880404D405E039462E
:101AC0002020B0476D1C641EF9D52846BDE8F08182
:101AD0002DE9F041044600251E469046C80301D575
:101AE000302700E02027880404D505E04146384629
:101AF000B0476D1C641EF9D52846BDE8F081000092
:101B0000201B0008000000203C0000002C120008F0
:101B10005C1B00083C000020040400003C1200088C
:101B200000A24A04000000000000000001020304BB
:101B3000060708090000000000000000010203047D
:101B40000102030406070809020406080000000059
:0C1B500000000000000000000000000089
:04000005080000ED02
:00000001FF
